{
  "_format": "hh-sol-artifact-1",
  "contractName": "WavePortal",
  "sourceName": "contracts/WavePortal.sol",
  "abi": [
    {
      "inputs": [],
      "stateMutability": "nonpayable",
      "type": "constructor"
    },
    {
      "inputs": [],
      "name": "getTotalWaves",
      "outputs": [
        {
          "internalType": "uint256",
          "name": "",
          "type": "uint256"
        }
      ],
      "stateMutability": "view",
      "type": "function"
    },
    {
      "inputs": [],
      "name": "saveWaver",
      "outputs": [],
      "stateMutability": "nonpayable",
      "type": "function"
    },
    {
      "inputs": [],
      "name": "wave",
      "outputs": [],
      "stateMutability": "nonpayable",
      "type": "function"
    },
    {
      "inputs": [
        {
          "internalType": "address",
          "name": "",
          "type": "address"
        }
      ],
      "name": "wavers",
      "outputs": [
        {
          "internalType": "uint256",
          "name": "",
          "type": "uint256"
        }
      ],
      "stateMutability": "view",
      "type": "function"
    }
  ],
  "bytecode": "0x608060405234801561001057600080fd5b5061003c6040518060600160405280603581526020016109df6035913961004160201b61024c1760201c565b6101c4565b6100dd816040516024016100559190610142565b6040516020818303038152906040527f41304fac000000000000000000000000000000000000000000000000000000007bffffffffffffffffffffffffffffffffffffffffffffffffffffffff19166020820180517bffffffffffffffffffffffffffffffffffffffffffffffffffffffff83818316178352505050506100e060201b60201c565b50565b60008151905060006a636f6e736f6c652e6c6f679050602083016000808483855afa5050505050565b600061011482610164565b61011e818561016f565b935061012e818560208601610180565b610137816101b3565b840191505092915050565b6000602082019050818103600083015261015c8184610109565b905092915050565b600081519050919050565b600082825260208201905092915050565b60005b8381101561019e578082015181840152602081019050610183565b838111156101ad576000848401525b50505050565b6000601f19601f8301169050919050565b61080c806101d36000396000f3fe608060405234801561001057600080fd5b506004361061004c5760003560e01c80633b5e7c7a146100515780636fe15b441461005b5780639a2cdc0814610065578063d6d8960d14610083575b600080fd5b6100596100b3565b005b61006361018f565b005b61006d6101e9565b60405161007a919061063a565b60405180910390f35b61009d600480360381019061009891906104fa565b610234565b6040516100aa919061063a565b60405180910390f35b600160003373ffffffffffffffffffffffffffffffffffffffff1673ffffffffffffffffffffffffffffffffffffffff168152602001908152602001600020600081548092919061010390610736565b91905055506000600160003373ffffffffffffffffffffffffffffffffffffffff1673ffffffffffffffffffffffffffffffffffffffff16815260200190815260200160002054905061018c6040518060400160405280601681526020017f2573206861732077617665642025642074696d6573210000000000000000000081525033836102e5565b50565b60016000808282546101a19190610671565b925050819055506101e76040518060400160405280600d81526020017f257320686173207761766564210000000000000000000000000000000000000081525033610384565b565b600061022c6040518060400160405280601781526020017f5765206861766520256420746f74616c20776176657321000000000000000000815250600054610420565b600054905090565b60016020528060005260406000206000915090505481565b6102e281604051602401610260919061057a565b6040516020818303038152906040527f41304fac000000000000000000000000000000000000000000000000000000007bffffffffffffffffffffffffffffffffffffffffffffffffffffffff19166020820180517bffffffffffffffffffffffffffffffffffffffffffffffffffffffff83818316178352505050506104bc565b50565b61037f8383836040516024016102fd939291906105cc565b6040516020818303038152906040527f07c81217000000000000000000000000000000000000000000000000000000007bffffffffffffffffffffffffffffffffffffffffffffffffffffffff19166020820180517bffffffffffffffffffffffffffffffffffffffffffffffffffffffff83818316178352505050506104bc565b505050565b61041c828260405160240161039a92919061059c565b6040516020818303038152906040527f319af333000000000000000000000000000000000000000000000000000000007bffffffffffffffffffffffffffffffffffffffffffffffffffffffff19166020820180517bffffffffffffffffffffffffffffffffffffffffffffffffffffffff83818316178352505050506104bc565b5050565b6104b8828260405160240161043692919061060a565b6040516020818303038152906040527f9710a9d0000000000000000000000000000000000000000000000000000000007bffffffffffffffffffffffffffffffffffffffffffffffffffffffff19166020820180517bffffffffffffffffffffffffffffffffffffffffffffffffffffffff83818316178352505050506104bc565b5050565b60008151905060006a636f6e736f6c652e6c6f679050602083016000808483855afa5050505050565b6000813590506104f4816107bf565b92915050565b60006020828403121561050c57600080fd5b600061051a848285016104e5565b91505092915050565b61052c816106c7565b82525050565b600061053d82610655565b6105478185610660565b9350610557818560208601610703565b610560816107ae565b840191505092915050565b610574816106f9565b82525050565b600060208201905081810360008301526105948184610532565b905092915050565b600060408201905081810360008301526105b68185610532565b90506105c56020830184610523565b9392505050565b600060608201905081810360008301526105e68186610532565b90506105f56020830185610523565b610602604083018461056b565b949350505050565b600060408201905081810360008301526106248185610532565b9050610633602083018461056b565b9392505050565b600060208201905061064f600083018461056b565b92915050565b600081519050919050565b600082825260208201905092915050565b600061067c826106f9565b9150610687836106f9565b9250827fffffffffffffffffffffffffffffffffffffffffffffffffffffffffffffffff038211156106bc576106bb61077f565b5b828201905092915050565b60006106d2826106d9565b9050919050565b600073ffffffffffffffffffffffffffffffffffffffff82169050919050565b6000819050919050565b60005b83811015610721578082015181840152602081019050610706565b83811115610730576000848401525b50505050565b6000610741826106f9565b91507fffffffffffffffffffffffffffffffffffffffffffffffffffffffffffffffff8214156107745761077361077f565b5b600182019050919050565b7f4e487b7100000000000000000000000000000000000000000000000000000000600052601160045260246000fd5b6000601f19601f8301169050919050565b6107c8816106c7565b81146107d357600080fd5b5056fea264697066735822122091e3eaf58a1457af1c8104368a3357a0644b16f0aa5505395a7705dbd8bc71a164736f6c634300080000334576657279207761766520696e6372656173657320796f7572206f646473206f6620737563636573732e2057617665206177617921",
  "linkReferences": {},
  "deployedLinkReferences": {}
}