{
  "_format": "hh-sol-artifact-1",
  "contractName": "WavePortal",
  "sourceName": "contracts/WavePortal.sol",
  "abi": [
    {
      "inputs": [],
      "stateMutability": "payable",
      "type": "constructor"
    },
    {
      "anonymous": false,
      "inputs": [
        {
          "indexed": true,
          "internalType": "address",
          "name": "from",
          "type": "address"
        },
        {
          "indexed": false,
          "internalType": "uint256",
          "name": "timestamp",
          "type": "uint256"
        },
        {
          "indexed": false,
          "internalType": "string",
          "name": "message",
          "type": "string"
        }
      ],
      "name": "NewWave",
      "type": "event"
    },
    {
      "inputs": [],
      "name": "getAllWaves",
      "outputs": [
        {
          "components": [
            {
              "internalType": "address",
              "name": "waver",
              "type": "address"
            },
            {
              "internalType": "string",
              "name": "message",
              "type": "string"
            },
            {
              "internalType": "uint256",
              "name": "timestamp",
              "type": "uint256"
            }
          ],
          "internalType": "struct WavePortal.Wave[]",
          "name": "",
          "type": "tuple[]"
        }
      ],
      "stateMutability": "view",
      "type": "function"
    },
    {
      "inputs": [],
      "name": "getTotalWaves",
      "outputs": [
        {
          "internalType": "uint256",
          "name": "",
          "type": "uint256"
        }
      ],
      "stateMutability": "view",
      "type": "function"
    },
    {
      "inputs": [],
      "name": "saveWaver",
      "outputs": [],
      "stateMutability": "nonpayable",
      "type": "function"
    },
    {
      "inputs": [
        {
          "internalType": "string",
          "name": "_message",
          "type": "string"
        }
      ],
      "name": "wave",
      "outputs": [],
      "stateMutability": "nonpayable",
      "type": "function"
    },
    {
      "inputs": [
        {
          "internalType": "address",
          "name": "",
          "type": "address"
        }
      ],
      "name": "wavers",
      "outputs": [
        {
          "internalType": "uint256",
          "name": "",
          "type": "uint256"
        }
      ],
      "stateMutability": "view",
      "type": "function"
    }
  ],
  "bytecode": "0x60806040526200004f6040518060400160405280601981526020017f57652068617665206265656e20636f6e737472756374656421000000000000008152506200005560201b620006301760201c565b620001e9565b620000f5816040516024016200006c919062000162565b6040516020818303038152906040527f41304fac000000000000000000000000000000000000000000000000000000007bffffffffffffffffffffffffffffffffffffffffffffffffffffffff19166020820180517bffffffffffffffffffffffffffffffffffffffffffffffffffffffff8381831617835250505050620000f860201b60201c565b50565b60008151905060006a636f6e736f6c652e6c6f679050602083016000808483855afa5050505050565b60006200012e8262000186565b6200013a818562000191565b93506200014c818560208601620001a2565b6200015781620001d8565b840191505092915050565b600060208201905081810360008301526200017e818462000121565b905092915050565b600081519050919050565b600082825260208201905092915050565b60005b83811015620001c2578082015181840152602081019050620001a5565b83811115620001d2576000848401525b50505050565b6000601f19601f8301169050919050565b61116680620001f96000396000f3fe608060405234801561001057600080fd5b50600436106100575760003560e01c80633b5e7c7a1461005c578063449d46c0146100665780639a2cdc0814610082578063bd43a908146100a0578063d6d8960d146100be575b600080fd5b6100646100ee565b005b610080600480360381019061007b9190610a15565b6101ca565b005b61008a61047c565b6040516100979190610e0f565b60405180910390f35b6100a86104c7565b6040516100b59190610cd8565b60405180910390f35b6100d860048036038101906100d391906109ec565b610618565b6040516100e59190610e0f565b60405180910390f35b600260003373ffffffffffffffffffffffffffffffffffffffff1673ffffffffffffffffffffffffffffffffffffffff168152602001908152602001600020600081548092919061013e90611032565b91905055506000600260003373ffffffffffffffffffffffffffffffffffffffff1673ffffffffffffffffffffffffffffffffffffffff1681526020019081526020016000205490506101c76040518060400160405280601681526020017f2573206861732077617665642025642074696d6573210000000000000000000081525033836106c9565b50565b60016000808282546101dc9190610f2c565b925050819055506102236040518060400160405280601681526020017f257320776176656420772f206d657373616765202573000000000000000000008152503383610768565b600160405180606001604052803373ffffffffffffffffffffffffffffffffffffffff16815260200183815260200142815250908060018154018082558091505060019003906000526020600020906003020160009091909190915060008201518160000160006101000a81548173ffffffffffffffffffffffffffffffffffffffff021916908373ffffffffffffffffffffffffffffffffffffffff16021790555060208201518160010190805190602001906102e29291906108cc565b506040820151816002015550503373ffffffffffffffffffffffffffffffffffffffff167f5f7e16dc676677766a70e9c5628aa6c54ddb8b6e5188e2ae1e1f17f1ffbea7164283604051610337929190610e2a565b60405180910390a26000655af3107a400090504781111561038d576040517f08c379a000000000000000000000000000000000000000000000000000000000815260040161038490610dcf565b60405180910390fd5b60003373ffffffffffffffffffffffffffffffffffffffff16826040516103b390610cc3565b60006040518083038185875af1925050503d80600081146103f0576040519150601f19603f3d011682016040523d82523d6000602084013e6103f5565b606091505b5050905080610439576040517f08c379a000000000000000000000000000000000000000000000000000000000815260040161043090610def565b60405180910390fd5b6104776040518060400160405280600a81526020017f45746865722053656e7400000000000000000000000000000000000000000000815250610630565b505050565b60006104bf6040518060400160405280601781526020017f5765206861766520256420746f74616c20776176657321000000000000000000815250600054610807565b600054905090565b60606001805480602002602001604051908101604052809291908181526020016000905b8282101561060f57838290600052602060002090600302016040518060600160405290816000820160009054906101000a900473ffffffffffffffffffffffffffffffffffffffff1673ffffffffffffffffffffffffffffffffffffffff1673ffffffffffffffffffffffffffffffffffffffff16815260200160018201805461057490611000565b80601f01602080910402602001604051908101604052809291908181526020018280546105a090611000565b80156105ed5780601f106105c2576101008083540402835291602001916105ed565b820191906000526020600020905b8154815290600101906020018083116105d057829003601f168201915b50505050508152602001600282015481525050815260200190600101906104eb565b50505050905090565b60026020528060005260406000206000915090505481565b6106c6816040516024016106449190610cfa565b6040516020818303038152906040527f41304fac000000000000000000000000000000000000000000000000000000007bffffffffffffffffffffffffffffffffffffffffffffffffffffffff19166020820180517bffffffffffffffffffffffffffffffffffffffffffffffffffffffff83818316178352505050506108a3565b50565b6107638383836040516024016106e193929190610d61565b6040516020818303038152906040527f07c81217000000000000000000000000000000000000000000000000000000007bffffffffffffffffffffffffffffffffffffffffffffffffffffffff19166020820180517bffffffffffffffffffffffffffffffffffffffffffffffffffffffff83818316178352505050506108a3565b505050565b61080283838360405160240161078093929190610d1c565b6040516020818303038152906040527fe0e9ad4f000000000000000000000000000000000000000000000000000000007bffffffffffffffffffffffffffffffffffffffffffffffffffffffff19166020820180517bffffffffffffffffffffffffffffffffffffffffffffffffffffffff83818316178352505050506108a3565b505050565b61089f828260405160240161081d929190610d9f565b6040516020818303038152906040527f9710a9d0000000000000000000000000000000000000000000000000000000007bffffffffffffffffffffffffffffffffffffffffffffffffffffffff19166020820180517bffffffffffffffffffffffffffffffffffffffffffffffffffffffff83818316178352505050506108a3565b5050565b60008151905060006a636f6e736f6c652e6c6f679050602083016000808483855afa5050505050565b8280546108d890611000565b90600052602060002090601f0160209004810192826108fa5760008555610941565b82601f1061091357805160ff1916838001178555610941565b82800160010185558215610941579182015b82811115610940578251825591602001919060010190610925565b5b50905061094e9190610952565b5090565b5b8082111561096b576000816000905550600101610953565b5090565b600061098261097d84610e8b565b610e5a565b90508281526020810184848401111561099a57600080fd5b6109a5848285610fbe565b509392505050565b6000813590506109bc81611119565b92915050565b600082601f8301126109d357600080fd5b81356109e384826020860161096f565b91505092915050565b6000602082840312156109fe57600080fd5b6000610a0c848285016109ad565b91505092915050565b600060208284031215610a2757600080fd5b600082013567ffffffffffffffff811115610a4157600080fd5b610a4d848285016109c2565b91505092915050565b6000610a628383610c55565b905092915050565b610a7381610f82565b82525050565b610a8281610f82565b82525050565b6000610a9382610ecb565b610a9d8185610eee565b935083602082028501610aaf85610ebb565b8060005b85811015610aeb5784840389528151610acc8582610a56565b9450610ad783610ee1565b925060208a01995050600181019050610ab3565b50829750879550505050505092915050565b6000610b0882610ed6565b610b128185610f0a565b9350610b22818560208601610fcd565b610b2b81611108565b840191505092915050565b6000610b4182610ed6565b610b4b8185610f1b565b9350610b5b818560208601610fcd565b610b6481611108565b840191505092915050565b6000610b7c603483610f1b565b91507f547279696e6720746f207769746864726177206d6f7265206d6f6e657920746860008301527f616e2074686520636f6e7472616374206861732e0000000000000000000000006020830152604082019050919050565b6000610be2602783610f1b565b91507f4661696c656420746f207769746864726177206d6f6e65792066726f6d20636f60008301527f6e74726163742e000000000000000000000000000000000000000000000000006020830152604082019050919050565b6000610c48600083610eff565b9150600082019050919050565b6000606083016000830151610c6d6000860182610a6a565b5060208301518482036020860152610c858282610afd565b9150506040830151610c9a6040860182610ca5565b508091505092915050565b610cae81610fb4565b82525050565b610cbd81610fb4565b82525050565b6000610cce82610c3b565b9150819050919050565b60006020820190508181036000830152610cf28184610a88565b905092915050565b60006020820190508181036000830152610d148184610b36565b905092915050565b60006060820190508181036000830152610d368186610b36565b9050610d456020830185610a79565b8181036040830152610d578184610b36565b9050949350505050565b60006060820190508181036000830152610d7b8186610b36565b9050610d8a6020830185610a79565b610d976040830184610cb4565b949350505050565b60006040820190508181036000830152610db98185610b36565b9050610dc86020830184610cb4565b9392505050565b60006020820190508181036000830152610de881610b6f565b9050919050565b60006020820190508181036000830152610e0881610bd5565b9050919050565b6000602082019050610e246000830184610cb4565b92915050565b6000604082019050610e3f6000830185610cb4565b8181036020830152610e518184610b36565b90509392505050565b6000604051905081810181811067ffffffffffffffff82111715610e8157610e806110d9565b5b8060405250919050565b600067ffffffffffffffff821115610ea657610ea56110d9565b5b601f19601f8301169050602081019050919050565b6000819050602082019050919050565b600081519050919050565b600081519050919050565b6000602082019050919050565b600082825260208201905092915050565b600081905092915050565b600082825260208201905092915050565b600082825260208201905092915050565b6000610f3782610fb4565b9150610f4283610fb4565b9250827fffffffffffffffffffffffffffffffffffffffffffffffffffffffffffffffff03821115610f7757610f7661107b565b5b828201905092915050565b6000610f8d82610f94565b9050919050565b600073ffffffffffffffffffffffffffffffffffffffff82169050919050565b6000819050919050565b82818337600083830152505050565b60005b83811015610feb578082015181840152602081019050610fd0565b83811115610ffa576000848401525b50505050565b6000600282049050600182168061101857607f821691505b6020821081141561102c5761102b6110aa565b5b50919050565b600061103d82610fb4565b91507fffffffffffffffffffffffffffffffffffffffffffffffffffffffffffffffff8214156110705761106f61107b565b5b600182019050919050565b7f4e487b7100000000000000000000000000000000000000000000000000000000600052601160045260246000fd5b7f4e487b7100000000000000000000000000000000000000000000000000000000600052602260045260246000fd5b7f4e487b7100000000000000000000000000000000000000000000000000000000600052604160045260246000fd5b6000601f19601f8301169050919050565b61112281610f82565b811461112d57600080fd5b5056fea264697066735822122085d7349ff69deaa2c0c7b43a28bd37a32c913543827e7291659ae5e10f9c326164736f6c63430008000033",
  "linkReferences": {},
  "deployedLinkReferences": {}
}