{
  "_format": "hh-sol-artifact-1",
  "contractName": "WavePortal",
  "sourceName": "contracts/WavePortal.sol",
  "abi": [
    {
      "inputs": [],
      "stateMutability": "payable",
      "type": "constructor"
    },
    {
      "anonymous": false,
      "inputs": [
        {
          "indexed": true,
          "internalType": "address",
          "name": "from",
          "type": "address"
        },
        {
          "indexed": false,
          "internalType": "uint256",
          "name": "timestamp",
          "type": "uint256"
        },
        {
          "indexed": false,
          "internalType": "string",
          "name": "message",
          "type": "string"
        }
      ],
      "name": "NewWave",
      "type": "event"
    },
    {
      "inputs": [],
      "name": "getAllWaves",
      "outputs": [
        {
          "components": [
            {
              "internalType": "address",
              "name": "waver",
              "type": "address"
            },
            {
              "internalType": "string",
              "name": "message",
              "type": "string"
            },
            {
              "internalType": "uint256",
              "name": "timestamp",
              "type": "uint256"
            }
          ],
          "internalType": "struct WavePortal.Wave[]",
          "name": "",
          "type": "tuple[]"
        }
      ],
      "stateMutability": "view",
      "type": "function"
    },
    {
      "inputs": [],
      "name": "getTotalWaves",
      "outputs": [
        {
          "internalType": "uint256",
          "name": "",
          "type": "uint256"
        }
      ],
      "stateMutability": "view",
      "type": "function"
    },
    {
      "inputs": [
        {
          "internalType": "address",
          "name": "",
          "type": "address"
        }
      ],
      "name": "lastWavedAt",
      "outputs": [
        {
          "internalType": "uint256",
          "name": "",
          "type": "uint256"
        }
      ],
      "stateMutability": "view",
      "type": "function"
    },
    {
      "inputs": [],
      "name": "saveWaver",
      "outputs": [],
      "stateMutability": "nonpayable",
      "type": "function"
    },
    {
      "inputs": [
        {
          "internalType": "string",
          "name": "_message",
          "type": "string"
        }
      ],
      "name": "wave",
      "outputs": [],
      "stateMutability": "nonpayable",
      "type": "function"
    },
    {
      "inputs": [
        {
          "internalType": "address",
          "name": "",
          "type": "address"
        }
      ],
      "name": "wavers",
      "outputs": [
        {
          "internalType": "uint256",
          "name": "",
          "type": "uint256"
        }
      ],
      "stateMutability": "view",
      "type": "function"
    }
  ],
  "bytecode": "0x60806040526200004f6040518060400160405280601981526020017f57652068617665206265656e20636f6e737472756374656421000000000000008152506200007760201b620009071760201c565b606444426200005f9190620001c4565b6200006b919062000261565b60018190555062000308565b62000117816040516024016200008e919062000184565b6040516020818303038152906040527f41304fac000000000000000000000000000000000000000000000000000000007bffffffffffffffffffffffffffffffffffffffffffffffffffffffff19166020820180517bffffffffffffffffffffffffffffffffffffffffffffffffffffffff83818316178352505050506200011a60201b60201c565b50565b60008151905060006a636f6e736f6c652e6c6f679050602083016000808483855afa5050505050565b60006200015082620001a8565b6200015c8185620001b3565b93506200016e8185602086016200022b565b6200017981620002f7565b840191505092915050565b60006020820190508181036000830152620001a0818462000143565b905092915050565b600081519050919050565b600082825260208201905092915050565b6000620001d18262000221565b9150620001de8362000221565b9250827fffffffffffffffffffffffffffffffffffffffffffffffffffffffffffffffff0382111562000216576200021562000299565b5b828201905092915050565b6000819050919050565b60005b838110156200024b5780820151818401526020810190506200022e565b838111156200025b576000848401525b50505050565b60006200026e8262000221565b91506200027b8362000221565b9250826200028e576200028d620002c8565b5b828206905092915050565b7f4e487b7100000000000000000000000000000000000000000000000000000000600052601160045260246000fd5b7f4e487b7100000000000000000000000000000000000000000000000000000000600052601260045260246000fd5b6000601f19601f8301169050919050565b6116fb80620003186000396000f3fe608060405234801561001057600080fd5b50600436106100625760003560e01c80633b5e7c7a14610067578063449d46c0146100715780639a2cdc081461008d578063a42a4663146100ab578063bd43a908146100db578063d6d8960d146100f9575b600080fd5b61006f610129565b005b61008b60048036038101906100869190610d88565b610205565b005b61009561073b565b6040516100a29190611344565b60405180910390f35b6100c560048036038101906100c09190610d5f565b610786565b6040516100d29190611344565b60405180910390f35b6100e361079e565b6040516100f0919061117d565b60405180910390f35b610113600480360381019061010e9190610d5f565b6108ef565b6040516101209190611344565b60405180910390f35b600460003373ffffffffffffffffffffffffffffffffffffffff1673ffffffffffffffffffffffffffffffffffffffff168152602001908152602001600020600081548092919061017990611567565b91905055506000600460003373ffffffffffffffffffffffffffffffffffffffff1673ffffffffffffffffffffffffffffffffffffffff1681526020019081526020016000205490506102026040518060400160405280601681526020017f2573206861732077617665642025642074696d6573210000000000000000000081525033836109a0565b50565b42610384600360003373ffffffffffffffffffffffffffffffffffffffff1673ffffffffffffffffffffffffffffffffffffffff168152602001908152602001600020546102539190611461565b10610293576040517f08c379a000000000000000000000000000000000000000000000000000000000815260040161028a906112e4565b60405180910390fd5b42600360003373ffffffffffffffffffffffffffffffffffffffff1673ffffffffffffffffffffffffffffffffffffffff1681526020019081526020016000208190555060016000808282546102e99190611461565b925050819055506103306040518060400160405280601681526020017f257320776176656420772f206d657373616765202573000000000000000000008152503383610a3f565b600260405180606001604052803373ffffffffffffffffffffffffffffffffffffffff16815260200183815260200142815250908060018154018082558091505060019003906000526020600020906003020160009091909190915060008201518160000160006101000a81548173ffffffffffffffffffffffffffffffffffffffff021916908373ffffffffffffffffffffffffffffffffffffffff16021790555060208201518160010190805190602001906103ef929190610c3f565b506040820151816002015550506064600154424461040d9190611461565b6104179190611461565b61042191906115b0565b6001819055506104686040518060400160405280601681526020017f52616e646f6d20232067656e6572617465643a20256400000000000000000000815250600154610ade565b6032600154116105ae576104b16040518060400160405280600781526020017f257320776f6e210000000000000000000000000000000000000000000000000081525033610b7a565b6000655af3107a40009050478111156104ff576040517f08c379a00000000000000000000000000000000000000000000000000000000081526004016104f690611324565b60405180910390fd5b60003373ffffffffffffffffffffffffffffffffffffffff168260405161052590611168565b60006040518083038185875af1925050503d8060008114610562576040519150601f19603f3d011682016040523d82523d6000602084013e610567565b606091505b50509050806105ab576040517f08c379a00000000000000000000000000000000000000000000000000000000081526004016105a290611304565b60405180910390fd5b50505b3373ffffffffffffffffffffffffffffffffffffffff167f5f7e16dc676677766a70e9c5628aa6c54ddb8b6e5188e2ae1e1f17f1ffbea71642836040516105f692919061135f565b60405180910390a26000655af3107a400090504781111561064c576040517f08c379a0000000000000000000000000000000000000000000000000000000008152600401610643906112a4565b60405180910390fd5b60003373ffffffffffffffffffffffffffffffffffffffff168260405161067290611168565b60006040518083038185875af1925050503d80600081146106af576040519150601f19603f3d011682016040523d82523d6000602084013e6106b4565b606091505b50509050806106f8576040517f08c379a00000000000000000000000000000000000000000000000000000000081526004016106ef906112c4565b60405180910390fd5b6107366040518060400160405280600a81526020017f45746865722053656e7400000000000000000000000000000000000000000000815250610907565b505050565b600061077e6040518060400160405280601781526020017f5765206861766520256420746f74616c20776176657321000000000000000000815250600054610ade565b600054905090565b60036020528060005260406000206000915090505481565b60606002805480602002602001604051908101604052809291908181526020016000905b828210156108e657838290600052602060002090600302016040518060600160405290816000820160009054906101000a900473ffffffffffffffffffffffffffffffffffffffff1673ffffffffffffffffffffffffffffffffffffffff1673ffffffffffffffffffffffffffffffffffffffff16815260200160018201805461084b90611535565b80601f016020809104026020016040519081016040528092919081815260200182805461087790611535565b80156108c45780601f10610899576101008083540402835291602001916108c4565b820191906000526020600020905b8154815290600101906020018083116108a757829003601f168201915b50505050508152602001600282015481525050815260200190600101906107c2565b50505050905090565b60046020528060005260406000206000915090505481565b61099d8160405160240161091b919061119f565b6040516020818303038152906040527f41304fac000000000000000000000000000000000000000000000000000000007bffffffffffffffffffffffffffffffffffffffffffffffffffffffff19166020820180517bffffffffffffffffffffffffffffffffffffffffffffffffffffffff8381831617835250505050610c16565b50565b610a3a8383836040516024016109b893929190611236565b6040516020818303038152906040527f07c81217000000000000000000000000000000000000000000000000000000007bffffffffffffffffffffffffffffffffffffffffffffffffffffffff19166020820180517bffffffffffffffffffffffffffffffffffffffffffffffffffffffff8381831617835250505050610c16565b505050565b610ad9838383604051602401610a57939291906111f1565b6040516020818303038152906040527fe0e9ad4f000000000000000000000000000000000000000000000000000000007bffffffffffffffffffffffffffffffffffffffffffffffffffffffff19166020820180517bffffffffffffffffffffffffffffffffffffffffffffffffffffffff8381831617835250505050610c16565b505050565b610b768282604051602401610af4929190611274565b6040516020818303038152906040527f9710a9d0000000000000000000000000000000000000000000000000000000007bffffffffffffffffffffffffffffffffffffffffffffffffffffffff19166020820180517bffffffffffffffffffffffffffffffffffffffffffffffffffffffff8381831617835250505050610c16565b5050565b610c128282604051602401610b909291906111c1565b6040516020818303038152906040527f319af333000000000000000000000000000000000000000000000000000000007bffffffffffffffffffffffffffffffffffffffffffffffffffffffff19166020820180517bffffffffffffffffffffffffffffffffffffffffffffffffffffffff8381831617835250505050610c16565b5050565b60008151905060006a636f6e736f6c652e6c6f679050602083016000808483855afa5050505050565b828054610c4b90611535565b90600052602060002090601f016020900481019282610c6d5760008555610cb4565b82601f10610c8657805160ff1916838001178555610cb4565b82800160010185558215610cb4579182015b82811115610cb3578251825591602001919060010190610c98565b5b509050610cc19190610cc5565b5090565b5b80821115610cde576000816000905550600101610cc6565b5090565b6000610cf5610cf0846113c0565b61138f565b905082815260208101848484011115610d0d57600080fd5b610d188482856114f3565b509392505050565b600081359050610d2f816116ae565b92915050565b600082601f830112610d4657600080fd5b8135610d56848260208601610ce2565b91505092915050565b600060208284031215610d7157600080fd5b6000610d7f84828501610d20565b91505092915050565b600060208284031215610d9a57600080fd5b600082013567ffffffffffffffff811115610db457600080fd5b610dc084828501610d35565b91505092915050565b6000610dd583836110fa565b905092915050565b610de6816114b7565b82525050565b610df5816114b7565b82525050565b6000610e0682611400565b610e108185611423565b935083602082028501610e22856113f0565b8060005b85811015610e5e5784840389528151610e3f8582610dc9565b9450610e4a83611416565b925060208a01995050600181019050610e26565b50829750879550505050505092915050565b6000610e7b8261140b565b610e85818561143f565b9350610e95818560208601611502565b610e9e8161169d565b840191505092915050565b6000610eb48261140b565b610ebe8185611450565b9350610ece818560208601611502565b610ed78161169d565b840191505092915050565b6000610eef603483611450565b91507f547279696e6720746f207769746864726177206d6f7265206d6f6e657920746860008301527f616e2074686520636f6e7472616374206861732e0000000000000000000000006020830152604082019050919050565b6000610f55602783611450565b91507f4661696c656420746f207769746864726177206d6f6e65792066726f6d20636f60008301527f6e74726163742e000000000000000000000000000000000000000000000000006020830152604082019050919050565b6000610fbb601383611450565b91507f506c6561736520776169742031356d696e732e000000000000000000000000006000830152602082019050919050565b6000610ffb602983611450565b91507f4661696c656420746f207769746864726177616c206d6f6e65792066726f6d2060008301527f636f6e74726163742e00000000000000000000000000000000000000000000006020830152604082019050919050565b6000611061604283611450565b91507f4572726f723a20547279696e6720746f207769746864726177616c206d6f726560008301527f2063757272656e6379207468616e207468652077616c6c657420636f6e74616960208301527f6e730000000000000000000000000000000000000000000000000000000000006040830152606082019050919050565b60006110ed600083611434565b9150600082019050919050565b60006060830160008301516111126000860182610ddd565b506020830151848203602086015261112a8282610e70565b915050604083015161113f604086018261114a565b508091505092915050565b611153816114e9565b82525050565b611162816114e9565b82525050565b6000611173826110e0565b9150819050919050565b600060208201905081810360008301526111978184610dfb565b905092915050565b600060208201905081810360008301526111b98184610ea9565b905092915050565b600060408201905081810360008301526111db8185610ea9565b90506111ea6020830184610dec565b9392505050565b6000606082019050818103600083015261120b8186610ea9565b905061121a6020830185610dec565b818103604083015261122c8184610ea9565b9050949350505050565b600060608201905081810360008301526112508186610ea9565b905061125f6020830185610dec565b61126c6040830184611159565b949350505050565b6000604082019050818103600083015261128e8185610ea9565b905061129d6020830184611159565b9392505050565b600060208201905081810360008301526112bd81610ee2565b9050919050565b600060208201905081810360008301526112dd81610f48565b9050919050565b600060208201905081810360008301526112fd81610fae565b9050919050565b6000602082019050818103600083015261131d81610fee565b9050919050565b6000602082019050818103600083015261133d81611054565b9050919050565b60006020820190506113596000830184611159565b92915050565b60006040820190506113746000830185611159565b81810360208301526113868184610ea9565b90509392505050565b6000604051905081810181811067ffffffffffffffff821117156113b6576113b561166e565b5b8060405250919050565b600067ffffffffffffffff8211156113db576113da61166e565b5b601f19601f8301169050602081019050919050565b6000819050602082019050919050565b600081519050919050565b600081519050919050565b6000602082019050919050565b600082825260208201905092915050565b600081905092915050565b600082825260208201905092915050565b600082825260208201905092915050565b600061146c826114e9565b9150611477836114e9565b9250827fffffffffffffffffffffffffffffffffffffffffffffffffffffffffffffffff038211156114ac576114ab6115e1565b5b828201905092915050565b60006114c2826114c9565b9050919050565b600073ffffffffffffffffffffffffffffffffffffffff82169050919050565b6000819050919050565b82818337600083830152505050565b60005b83811015611520578082015181840152602081019050611505565b8381111561152f576000848401525b50505050565b6000600282049050600182168061154d57607f821691505b602082108114156115615761156061163f565b5b50919050565b6000611572826114e9565b91507fffffffffffffffffffffffffffffffffffffffffffffffffffffffffffffffff8214156115a5576115a46115e1565b5b600182019050919050565b60006115bb826114e9565b91506115c6836114e9565b9250826115d6576115d5611610565b5b828206905092915050565b7f4e487b7100000000000000000000000000000000000000000000000000000000600052601160045260246000fd5b7f4e487b7100000000000000000000000000000000000000000000000000000000600052601260045260246000fd5b7f4e487b7100000000000000000000000000000000000000000000000000000000600052602260045260246000fd5b7f4e487b7100000000000000000000000000000000000000000000000000000000600052604160045260246000fd5b6000601f19601f8301169050919050565b6116b7816114b7565b81146116c257600080fd5b5056fea2646970667358221220ed15043269eaa8ef151dcdb9c769cceabd8ef190ff54795c171577a0b5f2d81e64736f6c63430008000033",
  "linkReferences": {},
  "deployedLinkReferences": {}
}