{
  "_format": "hh-sol-artifact-1",
  "contractName": "WavePortal",
  "sourceName": "contracts/WavePortal.sol",
  "abi": [
    {
      "inputs": [],
      "stateMutability": "payable",
      "type": "constructor"
    },
    {
      "anonymous": false,
      "inputs": [
        {
          "indexed": true,
          "internalType": "address",
          "name": "from",
          "type": "address"
        },
        {
          "indexed": false,
          "internalType": "uint256",
          "name": "timestamp",
          "type": "uint256"
        },
        {
          "indexed": false,
          "internalType": "string",
          "name": "message",
          "type": "string"
        }
      ],
      "name": "NewWave",
      "type": "event"
    },
    {
      "inputs": [],
      "name": "getAllWaves",
      "outputs": [
        {
          "components": [
            {
              "internalType": "address",
              "name": "waver",
              "type": "address"
            },
            {
              "internalType": "string",
              "name": "message",
              "type": "string"
            },
            {
              "internalType": "uint256",
              "name": "timestamp",
              "type": "uint256"
            }
          ],
          "internalType": "struct WavePortal.Wave[]",
          "name": "",
          "type": "tuple[]"
        }
      ],
      "stateMutability": "view",
      "type": "function"
    },
    {
      "inputs": [],
      "name": "getTotalWaves",
      "outputs": [
        {
          "internalType": "uint256",
          "name": "",
          "type": "uint256"
        }
      ],
      "stateMutability": "view",
      "type": "function"
    },
    {
      "inputs": [
        {
          "internalType": "address",
          "name": "",
          "type": "address"
        }
      ],
      "name": "lastWavedAt",
      "outputs": [
        {
          "internalType": "uint256",
          "name": "",
          "type": "uint256"
        }
      ],
      "stateMutability": "view",
      "type": "function"
    },
    {
      "inputs": [],
      "name": "saveWaver",
      "outputs": [],
      "stateMutability": "nonpayable",
      "type": "function"
    },
    {
      "inputs": [
        {
          "internalType": "string",
          "name": "_message",
          "type": "string"
        }
      ],
      "name": "wave",
      "outputs": [],
      "stateMutability": "nonpayable",
      "type": "function"
    },
    {
      "inputs": [
        {
          "internalType": "address",
          "name": "",
          "type": "address"
        }
      ],
      "name": "wavers",
      "outputs": [
        {
          "internalType": "uint256",
          "name": "",
          "type": "uint256"
        }
      ],
      "stateMutability": "view",
      "type": "function"
    }
  ],
  "bytecode": "0x60806040526200004f6040518060400160405280601981526020017f57652068617665206265656e20636f6e737472756374656421000000000000008152506200007760201b620009061760201c565b606444426200005f9190620001c4565b6200006b919062000261565b60018190555062000308565b62000117816040516024016200008e919062000184565b6040516020818303038152906040527f41304fac000000000000000000000000000000000000000000000000000000007bffffffffffffffffffffffffffffffffffffffffffffffffffffffff19166020820180517bffffffffffffffffffffffffffffffffffffffffffffffffffffffff83818316178352505050506200011a60201b60201c565b50565b60008151905060006a636f6e736f6c652e6c6f679050602083016000808483855afa5050505050565b60006200015082620001a8565b6200015c8185620001b3565b93506200016e8185602086016200022b565b6200017981620002f7565b840191505092915050565b60006020820190508181036000830152620001a0818462000143565b905092915050565b600081519050919050565b600082825260208201905092915050565b6000620001d18262000221565b9150620001de8362000221565b9250827fffffffffffffffffffffffffffffffffffffffffffffffffffffffffffffffff0382111562000216576200021562000299565b5b828201905092915050565b6000819050919050565b60005b838110156200024b5780820151818401526020810190506200022e565b838111156200025b576000848401525b50505050565b60006200026e8262000221565b91506200027b8362000221565b9250826200028e576200028d620002c8565b5b828206905092915050565b7f4e487b7100000000000000000000000000000000000000000000000000000000600052601160045260246000fd5b7f4e487b7100000000000000000000000000000000000000000000000000000000600052601260045260246000fd5b6000601f19601f8301169050919050565b6116fa80620003186000396000f3fe608060405234801561001057600080fd5b50600436106100625760003560e01c80633b5e7c7a14610067578063449d46c0146100715780639a2cdc081461008d578063a42a4663146100ab578063bd43a908146100db578063d6d8960d146100f9575b600080fd5b61006f610129565b005b61008b60048036038101906100869190610d87565b610205565b005b61009561073a565b6040516100a29190611343565b60405180910390f35b6100c560048036038101906100c09190610d5e565b610785565b6040516100d29190611343565b60405180910390f35b6100e361079d565b6040516100f0919061117c565b60405180910390f35b610113600480360381019061010e9190610d5e565b6108ee565b6040516101209190611343565b60405180910390f35b600460003373ffffffffffffffffffffffffffffffffffffffff1673ffffffffffffffffffffffffffffffffffffffff168152602001908152602001600020600081548092919061017990611566565b91905055506000600460003373ffffffffffffffffffffffffffffffffffffffff1673ffffffffffffffffffffffffffffffffffffffff1681526020019081526020016000205490506102026040518060400160405280601681526020017f2573206861732077617665642025642074696d65732100000000000000000000815250338361099f565b50565b42601e600360003373ffffffffffffffffffffffffffffffffffffffff1673ffffffffffffffffffffffffffffffffffffffff168152602001908152602001600020546102529190611460565b10610292576040517f08c379a0000000000000000000000000000000000000000000000000000000008152600401610289906112e3565b60405180910390fd5b42600360003373ffffffffffffffffffffffffffffffffffffffff1673ffffffffffffffffffffffffffffffffffffffff1681526020019081526020016000208190555060016000808282546102e89190611460565b9250508190555061032f6040518060400160405280601681526020017f257320776176656420772f206d657373616765202573000000000000000000008152503383610a3e565b600260405180606001604052803373ffffffffffffffffffffffffffffffffffffffff16815260200183815260200142815250908060018154018082558091505060019003906000526020600020906003020160009091909190915060008201518160000160006101000a81548173ffffffffffffffffffffffffffffffffffffffff021916908373ffffffffffffffffffffffffffffffffffffffff16021790555060208201518160010190805190602001906103ee929190610c3e565b506040820151816002015550506064600154424461040c9190611460565b6104169190611460565b61042091906115af565b6001819055506104676040518060400160405280601681526020017f52616e646f6d20232067656e6572617465643a20256400000000000000000000815250600154610add565b6032600154116105ad576104b06040518060400160405280600781526020017f257320776f6e210000000000000000000000000000000000000000000000000081525033610b79565b6000655af3107a40009050478111156104fe576040517f08c379a00000000000000000000000000000000000000000000000000000000081526004016104f590611323565b60405180910390fd5b60003373ffffffffffffffffffffffffffffffffffffffff168260405161052490611167565b60006040518083038185875af1925050503d8060008114610561576040519150601f19603f3d011682016040523d82523d6000602084013e610566565b606091505b50509050806105aa576040517f08c379a00000000000000000000000000000000000000000000000000000000081526004016105a190611303565b60405180910390fd5b50505b3373ffffffffffffffffffffffffffffffffffffffff167f5f7e16dc676677766a70e9c5628aa6c54ddb8b6e5188e2ae1e1f17f1ffbea71642836040516105f592919061135e565b60405180910390a26000655af3107a400090504781111561064b576040517f08c379a0000000000000000000000000000000000000000000000000000000008152600401610642906112a3565b60405180910390fd5b60003373ffffffffffffffffffffffffffffffffffffffff168260405161067190611167565b60006040518083038185875af1925050503d80600081146106ae576040519150601f19603f3d011682016040523d82523d6000602084013e6106b3565b606091505b50509050806106f7576040517f08c379a00000000000000000000000000000000000000000000000000000000081526004016106ee906112c3565b60405180910390fd5b6107356040518060400160405280600a81526020017f45746865722053656e7400000000000000000000000000000000000000000000815250610906565b505050565b600061077d6040518060400160405280601781526020017f5765206861766520256420746f74616c20776176657321000000000000000000815250600054610add565b600054905090565b60036020528060005260406000206000915090505481565b60606002805480602002602001604051908101604052809291908181526020016000905b828210156108e557838290600052602060002090600302016040518060600160405290816000820160009054906101000a900473ffffffffffffffffffffffffffffffffffffffff1673ffffffffffffffffffffffffffffffffffffffff1673ffffffffffffffffffffffffffffffffffffffff16815260200160018201805461084a90611534565b80601f016020809104026020016040519081016040528092919081815260200182805461087690611534565b80156108c35780601f10610898576101008083540402835291602001916108c3565b820191906000526020600020905b8154815290600101906020018083116108a657829003601f168201915b50505050508152602001600282015481525050815260200190600101906107c1565b50505050905090565b60046020528060005260406000206000915090505481565b61099c8160405160240161091a919061119e565b6040516020818303038152906040527f41304fac000000000000000000000000000000000000000000000000000000007bffffffffffffffffffffffffffffffffffffffffffffffffffffffff19166020820180517bffffffffffffffffffffffffffffffffffffffffffffffffffffffff8381831617835250505050610c15565b50565b610a398383836040516024016109b793929190611235565b6040516020818303038152906040527f07c81217000000000000000000000000000000000000000000000000000000007bffffffffffffffffffffffffffffffffffffffffffffffffffffffff19166020820180517bffffffffffffffffffffffffffffffffffffffffffffffffffffffff8381831617835250505050610c15565b505050565b610ad8838383604051602401610a56939291906111f0565b6040516020818303038152906040527fe0e9ad4f000000000000000000000000000000000000000000000000000000007bffffffffffffffffffffffffffffffffffffffffffffffffffffffff19166020820180517bffffffffffffffffffffffffffffffffffffffffffffffffffffffff8381831617835250505050610c15565b505050565b610b758282604051602401610af3929190611273565b6040516020818303038152906040527f9710a9d0000000000000000000000000000000000000000000000000000000007bffffffffffffffffffffffffffffffffffffffffffffffffffffffff19166020820180517bffffffffffffffffffffffffffffffffffffffffffffffffffffffff8381831617835250505050610c15565b5050565b610c118282604051602401610b8f9291906111c0565b6040516020818303038152906040527f319af333000000000000000000000000000000000000000000000000000000007bffffffffffffffffffffffffffffffffffffffffffffffffffffffff19166020820180517bffffffffffffffffffffffffffffffffffffffffffffffffffffffff8381831617835250505050610c15565b5050565b60008151905060006a636f6e736f6c652e6c6f679050602083016000808483855afa5050505050565b828054610c4a90611534565b90600052602060002090601f016020900481019282610c6c5760008555610cb3565b82601f10610c8557805160ff1916838001178555610cb3565b82800160010185558215610cb3579182015b82811115610cb2578251825591602001919060010190610c97565b5b509050610cc09190610cc4565b5090565b5b80821115610cdd576000816000905550600101610cc5565b5090565b6000610cf4610cef846113bf565b61138e565b905082815260208101848484011115610d0c57600080fd5b610d178482856114f2565b509392505050565b600081359050610d2e816116ad565b92915050565b600082601f830112610d4557600080fd5b8135610d55848260208601610ce1565b91505092915050565b600060208284031215610d7057600080fd5b6000610d7e84828501610d1f565b91505092915050565b600060208284031215610d9957600080fd5b600082013567ffffffffffffffff811115610db357600080fd5b610dbf84828501610d34565b91505092915050565b6000610dd483836110f9565b905092915050565b610de5816114b6565b82525050565b610df4816114b6565b82525050565b6000610e05826113ff565b610e0f8185611422565b935083602082028501610e21856113ef565b8060005b85811015610e5d5784840389528151610e3e8582610dc8565b9450610e4983611415565b925060208a01995050600181019050610e25565b50829750879550505050505092915050565b6000610e7a8261140a565b610e84818561143e565b9350610e94818560208601611501565b610e9d8161169c565b840191505092915050565b6000610eb38261140a565b610ebd818561144f565b9350610ecd818560208601611501565b610ed68161169c565b840191505092915050565b6000610eee60348361144f565b91507f547279696e6720746f207769746864726177206d6f7265206d6f6e657920746860008301527f616e2074686520636f6e7472616374206861732e0000000000000000000000006020830152604082019050919050565b6000610f5460278361144f565b91507f4661696c656420746f207769746864726177206d6f6e65792066726f6d20636f60008301527f6e74726163742e000000000000000000000000000000000000000000000000006020830152604082019050919050565b6000610fba60138361144f565b91507f506c6561736520776169742031356d696e732e000000000000000000000000006000830152602082019050919050565b6000610ffa60298361144f565b91507f4661696c656420746f207769746864726177616c206d6f6e65792066726f6d2060008301527f636f6e74726163742e00000000000000000000000000000000000000000000006020830152604082019050919050565b600061106060428361144f565b91507f4572726f723a20547279696e6720746f207769746864726177616c206d6f726560008301527f2063757272656e6379207468616e207468652077616c6c657420636f6e74616960208301527f6e730000000000000000000000000000000000000000000000000000000000006040830152606082019050919050565b60006110ec600083611433565b9150600082019050919050565b60006060830160008301516111116000860182610ddc565b50602083015184820360208601526111298282610e6f565b915050604083015161113e6040860182611149565b508091505092915050565b611152816114e8565b82525050565b611161816114e8565b82525050565b6000611172826110df565b9150819050919050565b600060208201905081810360008301526111968184610dfa565b905092915050565b600060208201905081810360008301526111b88184610ea8565b905092915050565b600060408201905081810360008301526111da8185610ea8565b90506111e96020830184610deb565b9392505050565b6000606082019050818103600083015261120a8186610ea8565b90506112196020830185610deb565b818103604083015261122b8184610ea8565b9050949350505050565b6000606082019050818103600083015261124f8186610ea8565b905061125e6020830185610deb565b61126b6040830184611158565b949350505050565b6000604082019050818103600083015261128d8185610ea8565b905061129c6020830184611158565b9392505050565b600060208201905081810360008301526112bc81610ee1565b9050919050565b600060208201905081810360008301526112dc81610f47565b9050919050565b600060208201905081810360008301526112fc81610fad565b9050919050565b6000602082019050818103600083015261131c81610fed565b9050919050565b6000602082019050818103600083015261133c81611053565b9050919050565b60006020820190506113586000830184611158565b92915050565b60006040820190506113736000830185611158565b81810360208301526113858184610ea8565b90509392505050565b6000604051905081810181811067ffffffffffffffff821117156113b5576113b461166d565b5b8060405250919050565b600067ffffffffffffffff8211156113da576113d961166d565b5b601f19601f8301169050602081019050919050565b6000819050602082019050919050565b600081519050919050565b600081519050919050565b6000602082019050919050565b600082825260208201905092915050565b600081905092915050565b600082825260208201905092915050565b600082825260208201905092915050565b600061146b826114e8565b9150611476836114e8565b9250827fffffffffffffffffffffffffffffffffffffffffffffffffffffffffffffffff038211156114ab576114aa6115e0565b5b828201905092915050565b60006114c1826114c8565b9050919050565b600073ffffffffffffffffffffffffffffffffffffffff82169050919050565b6000819050919050565b82818337600083830152505050565b60005b8381101561151f578082015181840152602081019050611504565b8381111561152e576000848401525b50505050565b6000600282049050600182168061154c57607f821691505b602082108114156115605761155f61163e565b5b50919050565b6000611571826114e8565b91507fffffffffffffffffffffffffffffffffffffffffffffffffffffffffffffffff8214156115a4576115a36115e0565b5b600182019050919050565b60006115ba826114e8565b91506115c5836114e8565b9250826115d5576115d461160f565b5b828206905092915050565b7f4e487b7100000000000000000000000000000000000000000000000000000000600052601160045260246000fd5b7f4e487b7100000000000000000000000000000000000000000000000000000000600052601260045260246000fd5b7f4e487b7100000000000000000000000000000000000000000000000000000000600052602260045260246000fd5b7f4e487b7100000000000000000000000000000000000000000000000000000000600052604160045260246000fd5b6000601f19601f8301169050919050565b6116b6816114b6565b81146116c157600080fd5b5056fea2646970667358221220f9b65b8d2ce18013bc8fa83343a69b79d663851f3a834ed2df3a4e671023f66a64736f6c63430008000033",
  "linkReferences": {},
  "deployedLinkReferences": {}
}